{
  "_format": "hh-sol-artifact-1",
  "contractName": "BasicNft",
  "sourceName": "contracts/test/BasicNft.sol",
  "abi": [
    {
      "inputs": [],
      "stateMutability": "nonpayable",
      "type": "constructor"
    },
    {
      "inputs": [
        {
          "internalType": "address",
          "name": "sender",
          "type": "address"
        },
        {
          "internalType": "uint256",
          "name": "tokenId",
          "type": "uint256"
        },
        {
          "internalType": "address",
          "name": "owner",
          "type": "address"
        }
      ],
      "name": "ERC721IncorrectOwner",
      "type": "error"
    },
    {
      "inputs": [
        {
          "internalType": "address",
          "name": "operator",
          "type": "address"
        },
        {
          "internalType": "uint256",
          "name": "tokenId",
          "type": "uint256"
        }
      ],
      "name": "ERC721InsufficientApproval",
      "type": "error"
    },
    {
      "inputs": [
        {
          "internalType": "address",
          "name": "approver",
          "type": "address"
        }
      ],
      "name": "ERC721InvalidApprover",
      "type": "error"
    },
    {
      "inputs": [
        {
          "internalType": "address",
          "name": "operator",
          "type": "address"
        }
      ],
      "name": "ERC721InvalidOperator",
      "type": "error"
    },
    {
      "inputs": [
        {
          "internalType": "address",
          "name": "owner",
          "type": "address"
        }
      ],
      "name": "ERC721InvalidOwner",
      "type": "error"
    },
    {
      "inputs": [
        {
          "internalType": "address",
          "name": "receiver",
          "type": "address"
        }
      ],
      "name": "ERC721InvalidReceiver",
      "type": "error"
    },
    {
      "inputs": [
        {
          "internalType": "address",
          "name": "sender",
          "type": "address"
        }
      ],
      "name": "ERC721InvalidSender",
      "type": "error"
    },
    {
      "inputs": [
        {
          "internalType": "uint256",
          "name": "tokenId",
          "type": "uint256"
        }
      ],
      "name": "ERC721NonexistentToken",
      "type": "error"
    },
    {
      "anonymous": false,
      "inputs": [
        {
          "indexed": true,
          "internalType": "address",
          "name": "owner",
          "type": "address"
        },
        {
          "indexed": true,
          "internalType": "address",
          "name": "approved",
          "type": "address"
        },
        {
          "indexed": true,
          "internalType": "uint256",
          "name": "tokenId",
          "type": "uint256"
        }
      ],
      "name": "Approval",
      "type": "event"
    },
    {
      "anonymous": false,
      "inputs": [
        {
          "indexed": true,
          "internalType": "address",
          "name": "owner",
          "type": "address"
        },
        {
          "indexed": true,
          "internalType": "address",
          "name": "operator",
          "type": "address"
        },
        {
          "indexed": false,
          "internalType": "bool",
          "name": "approved",
          "type": "bool"
        }
      ],
      "name": "ApprovalForAll",
      "type": "event"
    },
    {
      "anonymous": false,
      "inputs": [
        {
          "indexed": true,
          "internalType": "uint256",
          "name": "tokenId",
          "type": "uint256"
        }
      ],
      "name": "LogMinted",
      "type": "event"
    },
    {
      "anonymous": false,
      "inputs": [
        {
          "indexed": true,
          "internalType": "address",
          "name": "from",
          "type": "address"
        },
        {
          "indexed": true,
          "internalType": "address",
          "name": "to",
          "type": "address"
        },
        {
          "indexed": true,
          "internalType": "uint256",
          "name": "tokenId",
          "type": "uint256"
        }
      ],
      "name": "Transfer",
      "type": "event"
    },
    {
      "inputs": [],
      "name": "TOKEN_URI",
      "outputs": [
        {
          "internalType": "string",
          "name": "",
          "type": "string"
        }
      ],
      "stateMutability": "view",
      "type": "function"
    },
    {
      "inputs": [
        {
          "internalType": "address",
          "name": "to",
          "type": "address"
        },
        {
          "internalType": "uint256",
          "name": "tokenId",
          "type": "uint256"
        }
      ],
      "name": "approve",
      "outputs": [],
      "stateMutability": "nonpayable",
      "type": "function"
    },
    {
      "inputs": [
        {
          "internalType": "address",
          "name": "owner",
          "type": "address"
        }
      ],
      "name": "balanceOf",
      "outputs": [
        {
          "internalType": "uint256",
          "name": "",
          "type": "uint256"
        }
      ],
      "stateMutability": "view",
      "type": "function"
    },
    {
      "inputs": [],
      "name": "getAddress0",
      "outputs": [
        {
          "internalType": "address",
          "name": "",
          "type": "address"
        }
      ],
      "stateMutability": "pure",
      "type": "function"
    },
    {
      "inputs": [
        {
          "internalType": "uint256",
          "name": "tokenId",
          "type": "uint256"
        }
      ],
      "name": "getApproved",
      "outputs": [
        {
          "internalType": "address",
          "name": "",
          "type": "address"
        }
      ],
      "stateMutability": "view",
      "type": "function"
    },
    {
      "inputs": [],
      "name": "getTokenCounter",
      "outputs": [
        {
          "internalType": "uint256",
          "name": "",
          "type": "uint256"
        }
      ],
      "stateMutability": "view",
      "type": "function"
    },
    {
      "inputs": [
        {
          "internalType": "address",
          "name": "owner",
          "type": "address"
        },
        {
          "internalType": "address",
          "name": "operator",
          "type": "address"
        }
      ],
      "name": "isApprovedForAll",
      "outputs": [
        {
          "internalType": "bool",
          "name": "",
          "type": "bool"
        }
      ],
      "stateMutability": "view",
      "type": "function"
    },
    {
      "inputs": [],
      "name": "mintNft",
      "outputs": [],
      "stateMutability": "nonpayable",
      "type": "function"
    },
    {
      "inputs": [],
      "name": "name",
      "outputs": [
        {
          "internalType": "string",
          "name": "",
          "type": "string"
        }
      ],
      "stateMutability": "view",
      "type": "function"
    },
    {
      "inputs": [
        {
          "internalType": "uint256",
          "name": "tokenId",
          "type": "uint256"
        }
      ],
      "name": "ownerOf",
      "outputs": [
        {
          "internalType": "address",
          "name": "",
          "type": "address"
        }
      ],
      "stateMutability": "view",
      "type": "function"
    },
    {
      "inputs": [
        {
          "internalType": "address",
          "name": "from",
          "type": "address"
        },
        {
          "internalType": "address",
          "name": "to",
          "type": "address"
        },
        {
          "internalType": "uint256",
          "name": "tokenId",
          "type": "uint256"
        }
      ],
      "name": "safeTransferFrom",
      "outputs": [],
      "stateMutability": "nonpayable",
      "type": "function"
    },
    {
      "inputs": [
        {
          "internalType": "address",
          "name": "from",
          "type": "address"
        },
        {
          "internalType": "address",
          "name": "to",
          "type": "address"
        },
        {
          "internalType": "uint256",
          "name": "tokenId",
          "type": "uint256"
        },
        {
          "internalType": "bytes",
          "name": "data",
          "type": "bytes"
        }
      ],
      "name": "safeTransferFrom",
      "outputs": [],
      "stateMutability": "nonpayable",
      "type": "function"
    },
    {
      "inputs": [
        {
          "internalType": "address",
          "name": "operator",
          "type": "address"
        },
        {
          "internalType": "bool",
          "name": "approved",
          "type": "bool"
        }
      ],
      "name": "setApprovalForAll",
      "outputs": [],
      "stateMutability": "nonpayable",
      "type": "function"
    },
    {
      "inputs": [
        {
          "internalType": "bytes4",
          "name": "interfaceId",
          "type": "bytes4"
        }
      ],
      "name": "supportsInterface",
      "outputs": [
        {
          "internalType": "bool",
          "name": "",
          "type": "bool"
        }
      ],
      "stateMutability": "view",
      "type": "function"
    },
    {
      "inputs": [],
      "name": "symbol",
      "outputs": [
        {
          "internalType": "string",
          "name": "",
          "type": "string"
        }
      ],
      "stateMutability": "view",
      "type": "function"
    },
    {
      "inputs": [
        {
          "internalType": "uint256",
          "name": "tokenId",
          "type": "uint256"
        }
      ],
      "name": "tokenURI",
      "outputs": [
        {
          "internalType": "string",
          "name": "",
          "type": "string"
        }
      ],
      "stateMutability": "view",
      "type": "function"
    },
    {
      "inputs": [
        {
          "internalType": "address",
          "name": "from",
          "type": "address"
        },
        {
          "internalType": "address",
          "name": "to",
          "type": "address"
        },
        {
          "internalType": "uint256",
          "name": "tokenId",
          "type": "uint256"
        }
      ],
      "name": "transferFrom",
      "outputs": [],
      "stateMutability": "nonpayable",
      "type": "function"
    }
  ],
  "bytecode": "0x608060405260006006553480156200001657600080fd5b506040518060400160405280600481526020017f4b656b65000000000000000000000000000000000000000000000000000000008152506040518060400160405280600281526020017f4b4b000000000000000000000000000000000000000000000000000000000000815250816000908162000094919062000331565b508060019081620000a6919062000331565b505050600060068190555062000418565b600081519050919050565b7f4e487b7100000000000000000000000000000000000000000000000000000000600052604160045260246000fd5b7f4e487b7100000000000000000000000000000000000000000000000000000000600052602260045260246000fd5b600060028204905060018216806200013957607f821691505b6020821081036200014f576200014e620000f1565b5b50919050565b60008190508160005260206000209050919050565b60006020601f8301049050919050565b600082821b905092915050565b600060088302620001b97fffffffffffffffffffffffffffffffffffffffffffffffffffffffffffffffff826200017a565b620001c586836200017a565b95508019841693508086168417925050509392505050565b6000819050919050565b6000819050919050565b6000620002126200020c6200020684620001dd565b620001e7565b620001dd565b9050919050565b6000819050919050565b6200022e83620001f1565b620002466200023d8262000219565b84845462000187565b825550505050565b600090565b6200025d6200024e565b6200026a81848462000223565b505050565b5b8181101562000292576200028660008262000253565b60018101905062000270565b5050565b601f821115620002e157620002ab8162000155565b620002b6846200016a565b81016020851015620002c6578190505b620002de620002d5856200016a565b8301826200026f565b50505b505050565b600082821c905092915050565b60006200030660001984600802620002e6565b1980831691505092915050565b6000620003218383620002f3565b9150826002028217905092915050565b6200033c82620000b7565b67ffffffffffffffff811115620003585762000357620000c2565b5b62000364825462000120565b6200037182828562000296565b600060209050601f831160018114620003a9576000841562000394578287015190505b620003a0858262000313565b86555062000410565b601f198416620003b98662000155565b60005b82811015620003e357848901518255600182019150602085019450602081019050620003bc565b86831015620004035784890151620003ff601f891682620002f3565b8355505b6001600288020188555050505b505050505050565b611d5f80620004286000396000f3fe608060405234801561001057600080fd5b506004361061010b5760003560e01c80636e02007d116100a2578063a22cb46511610071578063a22cb465146102ba578063b88d4fde146102d6578063c2229fea146102f2578063c87b56dd146102fc578063e985e9c51461032c5761010b565b80636e02007d1461023057806370a082311461024e57806378ce90351461027e57806395d89b411461029c5761010b565b806323b872dd116100de57806323b872dd146101aa57806342842e0e146101c657806355b0cf12146101e25780636352211e146102005761010b565b806301ffc9a71461011057806306fdde0314610140578063081812fc1461015e578063095ea7b31461018e575b600080fd5b61012a6004803603810190610125919061150e565b61035c565b6040516101379190611556565b60405180910390f35b61014861043e565b6040516101559190611601565b60405180910390f35b61017860048036038101906101739190611659565b6104d0565b60405161018591906116c7565b60405180910390f35b6101a860048036038101906101a3919061170e565b6104ec565b005b6101c460048036038101906101bf919061174e565b610502565b005b6101e060048036038101906101db919061174e565b610604565b005b6101ea610624565b6040516101f791906116c7565b60405180910390f35b61021a60048036038101906102159190611659565b610629565b60405161022791906116c7565b60405180910390f35b61023861063b565b60405161024591906117b0565b60405180910390f35b610268600480360381019061026391906117cb565b610645565b60405161027591906117b0565b60405180910390f35b6102866106ff565b6040516102939190611601565b60405180910390f35b6102a461071b565b6040516102b19190611601565b60405180910390f35b6102d460048036038101906102cf9190611824565b6107ad565b005b6102f060048036038101906102eb9190611999565b6107c3565b005b6102fa6107e0565b005b61031660048036038101906103119190611659565b610832565b6040516103239190611601565b60405180910390f35b61034660048036038101906103419190611a1c565b6108cb565b6040516103539190611556565b60405180910390f35b60007f80ac58cd000000000000000000000000000000000000000000000000000000007bffffffffffffffffffffffffffffffffffffffffffffffffffffffff1916827bffffffffffffffffffffffffffffffffffffffffffffffffffffffff1916148061042757507f5b5e139f000000000000000000000000000000000000000000000000000000007bffffffffffffffffffffffffffffffffffffffffffffffffffffffff1916827bffffffffffffffffffffffffffffffffffffffffffffffffffffffff1916145b8061043757506104368261095f565b5b9050919050565b60606000805461044d90611a8b565b80601f016020809104026020016040519081016040528092919081815260200182805461047990611a8b565b80156104c65780601f1061049b576101008083540402835291602001916104c6565b820191906000526020600020905b8154815290600101906020018083116104a957829003601f168201915b5050505050905090565b60006104db826109c9565b506104e582610a51565b9050919050565b6104fe82826104f9610a8e565b610a96565b5050565b600073ffffffffffffffffffffffffffffffffffffffff168273ffffffffffffffffffffffffffffffffffffffff16036105745760006040517f64a0ae9200000000000000000000000000000000000000000000000000000000815260040161056b91906116c7565b60405180910390fd5b60006105888383610583610a8e565b610aa8565b90508373ffffffffffffffffffffffffffffffffffffffff168173ffffffffffffffffffffffffffffffffffffffff16146105fe578382826040517f64283d7b0000000000000000000000000000000000000000000000000000000081526004016105f593929190611abc565b60405180910390fd5b50505050565b61061f838383604051806020016040528060008152506107c3565b505050565b600090565b6000610634826109c9565b9050919050565b6000600654905090565b60008073ffffffffffffffffffffffffffffffffffffffff168273ffffffffffffffffffffffffffffffffffffffff16036106b85760006040517f89c62b640000000000000000000000000000000000000000000000000000000081526004016106af91906116c7565b60405180910390fd5b600360008373ffffffffffffffffffffffffffffffffffffffff1673ffffffffffffffffffffffffffffffffffffffff168152602001908152602001600020549050919050565b604051806060016040528060358152602001611cf56035913981565b60606001805461072a90611a8b565b80601f016020809104026020016040519081016040528092919081815260200182805461075690611a8b565b80156107a35780601f10610778576101008083540402835291602001916107a3565b820191906000526020600020905b81548152906001019060200180831161078657829003601f168201915b5050505050905090565b6107bf6107b8610a8e565b8383610cc2565b5050565b6107ce848484610502565b6107da84848484610e31565b50505050565b6107ec33600654610fe8565b6006547fd3b8835deded0a17c9aa8a2dec161082069b0c28d5d279579d22b84b1be269c860405160405180910390a2600160065461082a9190611b22565b600681905550565b6060600073ffffffffffffffffffffffffffffffffffffffff1661085583611006565b73ffffffffffffffffffffffffffffffffffffffff16036108ab576040517f08c379a00000000000000000000000000000000000000000000000000000000081526004016108a290611bc8565b60405180910390fd5b604051806060016040528060358152602001611cf5603591399050919050565b6000600560008473ffffffffffffffffffffffffffffffffffffffff1673ffffffffffffffffffffffffffffffffffffffff16815260200190815260200160002060008373ffffffffffffffffffffffffffffffffffffffff1673ffffffffffffffffffffffffffffffffffffffff16815260200190815260200160002060009054906101000a900460ff16905092915050565b60007f01ffc9a7000000000000000000000000000000000000000000000000000000007bffffffffffffffffffffffffffffffffffffffffffffffffffffffff1916827bffffffffffffffffffffffffffffffffffffffffffffffffffffffff1916149050919050565b6000806109d583611006565b9050600073ffffffffffffffffffffffffffffffffffffffff168173ffffffffffffffffffffffffffffffffffffffff1603610a4857826040517f7e273289000000000000000000000000000000000000000000000000000000008152600401610a3f91906117b0565b60405180910390fd5b80915050919050565b60006004600083815260200190815260200160002060009054906101000a900473ffffffffffffffffffffffffffffffffffffffff169050919050565b600033905090565b610aa38383836001611043565b505050565b600080610ab484611006565b9050600073ffffffffffffffffffffffffffffffffffffffff168373ffffffffffffffffffffffffffffffffffffffff1614610af657610af5818486611208565b5b600073ffffffffffffffffffffffffffffffffffffffff168173ffffffffffffffffffffffffffffffffffffffff1614610b8757610b38600085600080611043565b6001600360008373ffffffffffffffffffffffffffffffffffffffff1673ffffffffffffffffffffffffffffffffffffffff168152602001908152602001600020600082825403925050819055505b600073ffffffffffffffffffffffffffffffffffffffff168573ffffffffffffffffffffffffffffffffffffffff1614610c0a576001600360008773ffffffffffffffffffffffffffffffffffffffff1673ffffffffffffffffffffffffffffffffffffffff168152602001908152602001600020600082825401925050819055505b846002600086815260200190815260200160002060006101000a81548173ffffffffffffffffffffffffffffffffffffffff021916908373ffffffffffffffffffffffffffffffffffffffff160217905550838573ffffffffffffffffffffffffffffffffffffffff168273ffffffffffffffffffffffffffffffffffffffff167fddf252ad1be2c89b69c2b068fc378daa952ba7f163c4a11628f55a4df523b3ef60405160405180910390a4809150509392505050565b600073ffffffffffffffffffffffffffffffffffffffff168273ffffffffffffffffffffffffffffffffffffffff1603610d3357816040517f5b08ba18000000000000000000000000000000000000000000000000000000008152600401610d2a91906116c7565b60405180910390fd5b80600560008573ffffffffffffffffffffffffffffffffffffffff1673ffffffffffffffffffffffffffffffffffffffff16815260200190815260200160002060008473ffffffffffffffffffffffffffffffffffffffff1673ffffffffffffffffffffffffffffffffffffffff16815260200190815260200160002060006101000a81548160ff0219169083151502179055508173ffffffffffffffffffffffffffffffffffffffff168373ffffffffffffffffffffffffffffffffffffffff167f17307eab39ab6107e8899845ad3d59bd9653f200f220920489ca2b5937696c3183604051610e249190611556565b60405180910390a3505050565b60008373ffffffffffffffffffffffffffffffffffffffff163b1115610fe2578273ffffffffffffffffffffffffffffffffffffffff1663150b7a02610e75610a8e565b8685856040518563ffffffff1660e01b8152600401610e979493929190611c3d565b6020604051808303816000875af1925050508015610ed357506040513d601f19601f82011682018060405250810190610ed09190611c9e565b60015b610f57573d8060008114610f03576040519150601f19603f3d011682016040523d82523d6000602084013e610f08565b606091505b506000815103610f4f57836040517f64a0ae92000000000000000000000000000000000000000000000000000000008152600401610f4691906116c7565b60405180910390fd5b805181602001fd5b63150b7a0260e01b7bffffffffffffffffffffffffffffffffffffffffffffffffffffffff1916817bffffffffffffffffffffffffffffffffffffffffffffffffffffffff191614610fe057836040517f64a0ae92000000000000000000000000000000000000000000000000000000008152600401610fd791906116c7565b60405180910390fd5b505b50505050565b6110028282604051806020016040528060008152506112cc565b5050565b60006002600083815260200190815260200160002060009054906101000a900473ffffffffffffffffffffffffffffffffffffffff169050919050565b808061107c5750600073ffffffffffffffffffffffffffffffffffffffff168273ffffffffffffffffffffffffffffffffffffffff1614155b156111b057600061108c846109c9565b9050600073ffffffffffffffffffffffffffffffffffffffff168373ffffffffffffffffffffffffffffffffffffffff16141580156110f757508273ffffffffffffffffffffffffffffffffffffffff168173ffffffffffffffffffffffffffffffffffffffff1614155b801561110a575061110881846108cb565b155b1561114c57826040517fa9fbf51f00000000000000000000000000000000000000000000000000000000815260040161114391906116c7565b60405180910390fd5b81156111ae57838573ffffffffffffffffffffffffffffffffffffffff168273ffffffffffffffffffffffffffffffffffffffff167f8c5be1e5ebec7d5bd14f71427d1e84f3dd0314c0f7b2291e5b200ac8c7c3b92560405160405180910390a45b505b836004600085815260200190815260200160002060006101000a81548173ffffffffffffffffffffffffffffffffffffffff021916908373ffffffffffffffffffffffffffffffffffffffff16021790555050505050565b6112138383836112e8565b6112c757600073ffffffffffffffffffffffffffffffffffffffff168373ffffffffffffffffffffffffffffffffffffffff160361128857806040517f7e27328900000000000000000000000000000000000000000000000000000000815260040161127f91906117b0565b60405180910390fd5b81816040517f177e802f0000000000000000000000000000000000000000000000000000000081526004016112be929190611ccb565b60405180910390fd5b505050565b6112d683836113a9565b6112e36000848484610e31565b505050565b60008073ffffffffffffffffffffffffffffffffffffffff168373ffffffffffffffffffffffffffffffffffffffff16141580156113a057508273ffffffffffffffffffffffffffffffffffffffff168473ffffffffffffffffffffffffffffffffffffffff161480611361575061136084846108cb565b5b8061139f57508273ffffffffffffffffffffffffffffffffffffffff1661138783610a51565b73ffffffffffffffffffffffffffffffffffffffff16145b5b90509392505050565b600073ffffffffffffffffffffffffffffffffffffffff168273ffffffffffffffffffffffffffffffffffffffff160361141b5760006040517f64a0ae9200000000000000000000000000000000000000000000000000000000815260040161141291906116c7565b60405180910390fd5b600061142983836000610aa8565b9050600073ffffffffffffffffffffffffffffffffffffffff168173ffffffffffffffffffffffffffffffffffffffff161461149d5760006040517f73c6ac6e00000000000000000000000000000000000000000000000000000000815260040161149491906116c7565b60405180910390fd5b505050565b6000604051905090565b600080fd5b600080fd5b60007fffffffff0000000000000000000000000000000000000000000000000000000082169050919050565b6114eb816114b6565b81146114f657600080fd5b50565b600081359050611508816114e2565b92915050565b600060208284031215611524576115236114ac565b5b6000611532848285016114f9565b91505092915050565b60008115159050919050565b6115508161153b565b82525050565b600060208201905061156b6000830184611547565b92915050565b600081519050919050565b600082825260208201905092915050565b60005b838110156115ab578082015181840152602081019050611590565b60008484015250505050565b6000601f19601f8301169050919050565b60006115d382611571565b6115dd818561157c565b93506115ed81856020860161158d565b6115f6816115b7565b840191505092915050565b6000602082019050818103600083015261161b81846115c8565b905092915050565b6000819050919050565b61163681611623565b811461164157600080fd5b50565b6000813590506116538161162d565b92915050565b60006020828403121561166f5761166e6114ac565b5b600061167d84828501611644565b91505092915050565b600073ffffffffffffffffffffffffffffffffffffffff82169050919050565b60006116b182611686565b9050919050565b6116c1816116a6565b82525050565b60006020820190506116dc60008301846116b8565b92915050565b6116eb816116a6565b81146116f657600080fd5b50565b600081359050611708816116e2565b92915050565b60008060408385031215611725576117246114ac565b5b6000611733858286016116f9565b925050602061174485828601611644565b9150509250929050565b600080600060608486031215611767576117666114ac565b5b6000611775868287016116f9565b9350506020611786868287016116f9565b925050604061179786828701611644565b9150509250925092565b6117aa81611623565b82525050565b60006020820190506117c560008301846117a1565b92915050565b6000602082840312156117e1576117e06114ac565b5b60006117ef848285016116f9565b91505092915050565b6118018161153b565b811461180c57600080fd5b50565b60008135905061181e816117f8565b92915050565b6000806040838503121561183b5761183a6114ac565b5b6000611849858286016116f9565b925050602061185a8582860161180f565b9150509250929050565b600080fd5b600080fd5b7f4e487b7100000000000000000000000000000000000000000000000000000000600052604160045260246000fd5b6118a6826115b7565b810181811067ffffffffffffffff821117156118c5576118c461186e565b5b80604052505050565b60006118d86114a2565b90506118e4828261189d565b919050565b600067ffffffffffffffff8211156119045761190361186e565b5b61190d826115b7565b9050602081019050919050565b82818337600083830152505050565b600061193c611937846118e9565b6118ce565b90508281526020810184848401111561195857611957611869565b5b61196384828561191a565b509392505050565b600082601f8301126119805761197f611864565b5b8135611990848260208601611929565b91505092915050565b600080600080608085870312156119b3576119b26114ac565b5b60006119c1878288016116f9565b94505060206119d2878288016116f9565b93505060406119e387828801611644565b925050606085013567ffffffffffffffff811115611a0457611a036114b1565b5b611a108782880161196b565b91505092959194509250565b60008060408385031215611a3357611a326114ac565b5b6000611a41858286016116f9565b9250506020611a52858286016116f9565b9150509250929050565b7f4e487b7100000000000000000000000000000000000000000000000000000000600052602260045260246000fd5b60006002820490506001821680611aa357607f821691505b602082108103611ab657611ab5611a5c565b5b50919050565b6000606082019050611ad160008301866116b8565b611ade60208301856117a1565b611aeb60408301846116b8565b949350505050565b7f4e487b7100000000000000000000000000000000000000000000000000000000600052601160045260246000fd5b6000611b2d82611623565b9150611b3883611623565b9250828201905080821115611b5057611b4f611af3565b5b92915050565b7f4552433732314d657461646174613a2055524920717565727920666f72206e6f60008201527f6e6578697374656e7420746f6b656e0000000000000000000000000000000000602082015250565b6000611bb2602f8361157c565b9150611bbd82611b56565b604082019050919050565b60006020820190508181036000830152611be181611ba5565b9050919050565b600081519050919050565b600082825260208201905092915050565b6000611c0f82611be8565b611c198185611bf3565b9350611c2981856020860161158d565b611c32816115b7565b840191505092915050565b6000608082019050611c5260008301876116b8565b611c5f60208301866116b8565b611c6c60408301856117a1565b8181036060830152611c7e8184611c04565b905095945050505050565b600081519050611c98816114e2565b92915050565b600060208284031215611cb457611cb36114ac565b5b6000611cc284828501611c89565b91505092915050565b6000604082019050611ce060008301856116b8565b611ced60208301846117a1565b939250505056fe697066733a2f2f516d56443777757255444d4b7742347959434455636932533466646a4a765976486f757056535a64656478554359a26469706673582212206b65248a5cfd68ce0374bd2c3391a91fc95ee8eaf490413bcd050631f29799a164736f6c63430008180033",
  "linkReferences": {},
  "deployedLinkReferences": {}
}