{
  "_format": "hh-sol-artifact-1",
  "contractName": "BasicNft",
  "sourceName": "contracts/test/BasicNft.sol",
  "abi": [
    {
      "inputs": [],
      "stateMutability": "nonpayable",
      "type": "constructor"
    },
    {
      "inputs": [
        {
          "internalType": "address",
          "name": "sender",
          "type": "address"
        },
        {
          "internalType": "uint256",
          "name": "tokenId",
          "type": "uint256"
        },
        {
          "internalType": "address",
          "name": "owner",
          "type": "address"
        }
      ],
      "name": "ERC721IncorrectOwner",
      "type": "error"
    },
    {
      "inputs": [
        {
          "internalType": "address",
          "name": "operator",
          "type": "address"
        },
        {
          "internalType": "uint256",
          "name": "tokenId",
          "type": "uint256"
        }
      ],
      "name": "ERC721InsufficientApproval",
      "type": "error"
    },
    {
      "inputs": [
        {
          "internalType": "address",
          "name": "approver",
          "type": "address"
        }
      ],
      "name": "ERC721InvalidApprover",
      "type": "error"
    },
    {
      "inputs": [
        {
          "internalType": "address",
          "name": "operator",
          "type": "address"
        }
      ],
      "name": "ERC721InvalidOperator",
      "type": "error"
    },
    {
      "inputs": [
        {
          "internalType": "address",
          "name": "owner",
          "type": "address"
        }
      ],
      "name": "ERC721InvalidOwner",
      "type": "error"
    },
    {
      "inputs": [
        {
          "internalType": "address",
          "name": "receiver",
          "type": "address"
        }
      ],
      "name": "ERC721InvalidReceiver",
      "type": "error"
    },
    {
      "inputs": [
        {
          "internalType": "address",
          "name": "sender",
          "type": "address"
        }
      ],
      "name": "ERC721InvalidSender",
      "type": "error"
    },
    {
      "inputs": [
        {
          "internalType": "uint256",
          "name": "tokenId",
          "type": "uint256"
        }
      ],
      "name": "ERC721NonexistentToken",
      "type": "error"
    },
    {
      "anonymous": false,
      "inputs": [
        {
          "indexed": true,
          "internalType": "address",
          "name": "owner",
          "type": "address"
        },
        {
          "indexed": true,
          "internalType": "address",
          "name": "approved",
          "type": "address"
        },
        {
          "indexed": true,
          "internalType": "uint256",
          "name": "tokenId",
          "type": "uint256"
        }
      ],
      "name": "Approval",
      "type": "event"
    },
    {
      "anonymous": false,
      "inputs": [
        {
          "indexed": true,
          "internalType": "address",
          "name": "owner",
          "type": "address"
        },
        {
          "indexed": true,
          "internalType": "address",
          "name": "operator",
          "type": "address"
        },
        {
          "indexed": false,
          "internalType": "bool",
          "name": "approved",
          "type": "bool"
        }
      ],
      "name": "ApprovalForAll",
      "type": "event"
    },
    {
      "anonymous": false,
      "inputs": [
        {
          "indexed": true,
          "internalType": "uint256",
          "name": "tokenId",
          "type": "uint256"
        }
      ],
      "name": "LogMinted",
      "type": "event"
    },
    {
      "anonymous": false,
      "inputs": [
        {
          "indexed": true,
          "internalType": "address",
          "name": "from",
          "type": "address"
        },
        {
          "indexed": true,
          "internalType": "address",
          "name": "to",
          "type": "address"
        },
        {
          "indexed": true,
          "internalType": "uint256",
          "name": "tokenId",
          "type": "uint256"
        }
      ],
      "name": "Transfer",
      "type": "event"
    },
    {
      "inputs": [],
      "name": "TOKEN_URI",
      "outputs": [
        {
          "internalType": "string",
          "name": "",
          "type": "string"
        }
      ],
      "stateMutability": "view",
      "type": "function"
    },
    {
      "inputs": [
        {
          "internalType": "address",
          "name": "to",
          "type": "address"
        },
        {
          "internalType": "uint256",
          "name": "tokenId",
          "type": "uint256"
        }
      ],
      "name": "approve",
      "outputs": [],
      "stateMutability": "nonpayable",
      "type": "function"
    },
    {
      "inputs": [
        {
          "internalType": "address",
          "name": "owner",
          "type": "address"
        }
      ],
      "name": "balanceOf",
      "outputs": [
        {
          "internalType": "uint256",
          "name": "",
          "type": "uint256"
        }
      ],
      "stateMutability": "view",
      "type": "function"
    },
    {
      "inputs": [],
      "name": "getAddress0",
      "outputs": [
        {
          "internalType": "address",
          "name": "",
          "type": "address"
        }
      ],
      "stateMutability": "pure",
      "type": "function"
    },
    {
      "inputs": [
        {
          "internalType": "uint256",
          "name": "tokenId",
          "type": "uint256"
        }
      ],
      "name": "getApproved",
      "outputs": [
        {
          "internalType": "address",
          "name": "",
          "type": "address"
        }
      ],
      "stateMutability": "view",
      "type": "function"
    },
    {
      "inputs": [],
      "name": "getTokenCounter",
      "outputs": [
        {
          "internalType": "uint256",
          "name": "",
          "type": "uint256"
        }
      ],
      "stateMutability": "view",
      "type": "function"
    },
    {
      "inputs": [
        {
          "internalType": "address",
          "name": "owner",
          "type": "address"
        },
        {
          "internalType": "address",
          "name": "operator",
          "type": "address"
        }
      ],
      "name": "isApprovedForAll",
      "outputs": [
        {
          "internalType": "bool",
          "name": "",
          "type": "bool"
        }
      ],
      "stateMutability": "view",
      "type": "function"
    },
    {
      "inputs": [],
      "name": "mintNft",
      "outputs": [],
      "stateMutability": "nonpayable",
      "type": "function"
    },
    {
      "inputs": [],
      "name": "name",
      "outputs": [
        {
          "internalType": "string",
          "name": "",
          "type": "string"
        }
      ],
      "stateMutability": "view",
      "type": "function"
    },
    {
      "inputs": [
        {
          "internalType": "uint256",
          "name": "tokenId",
          "type": "uint256"
        }
      ],
      "name": "ownerOf",
      "outputs": [
        {
          "internalType": "address",
          "name": "",
          "type": "address"
        }
      ],
      "stateMutability": "view",
      "type": "function"
    },
    {
      "inputs": [
        {
          "internalType": "address",
          "name": "from",
          "type": "address"
        },
        {
          "internalType": "address",
          "name": "to",
          "type": "address"
        },
        {
          "internalType": "uint256",
          "name": "tokenId",
          "type": "uint256"
        }
      ],
      "name": "safeTransferFrom",
      "outputs": [],
      "stateMutability": "nonpayable",
      "type": "function"
    },
    {
      "inputs": [
        {
          "internalType": "address",
          "name": "from",
          "type": "address"
        },
        {
          "internalType": "address",
          "name": "to",
          "type": "address"
        },
        {
          "internalType": "uint256",
          "name": "tokenId",
          "type": "uint256"
        },
        {
          "internalType": "bytes",
          "name": "data",
          "type": "bytes"
        }
      ],
      "name": "safeTransferFrom",
      "outputs": [],
      "stateMutability": "nonpayable",
      "type": "function"
    },
    {
      "inputs": [
        {
          "internalType": "address",
          "name": "operator",
          "type": "address"
        },
        {
          "internalType": "bool",
          "name": "approved",
          "type": "bool"
        }
      ],
      "name": "setApprovalForAll",
      "outputs": [],
      "stateMutability": "nonpayable",
      "type": "function"
    },
    {
      "inputs": [
        {
          "internalType": "bytes4",
          "name": "interfaceId",
          "type": "bytes4"
        }
      ],
      "name": "supportsInterface",
      "outputs": [
        {
          "internalType": "bool",
          "name": "",
          "type": "bool"
        }
      ],
      "stateMutability": "view",
      "type": "function"
    },
    {
      "inputs": [],
      "name": "symbol",
      "outputs": [
        {
          "internalType": "string",
          "name": "",
          "type": "string"
        }
      ],
      "stateMutability": "view",
      "type": "function"
    },
    {
      "inputs": [
        {
          "internalType": "uint256",
          "name": "",
          "type": "uint256"
        }
      ],
      "name": "tokenURI",
      "outputs": [
        {
          "internalType": "string",
          "name": "",
          "type": "string"
        }
      ],
      "stateMutability": "pure",
      "type": "function"
    },
    {
      "inputs": [
        {
          "internalType": "address",
          "name": "from",
          "type": "address"
        },
        {
          "internalType": "address",
          "name": "to",
          "type": "address"
        },
        {
          "internalType": "uint256",
          "name": "tokenId",
          "type": "uint256"
        }
      ],
      "name": "transferFrom",
      "outputs": [],
      "stateMutability": "nonpayable",
      "type": "function"
    }
  ],
  "bytecode": "0x608060405260006006553480156200001657600080fd5b506040518060400160405280600481526020017f4b656b65000000000000000000000000000000000000000000000000000000008152506040518060400160405280600281526020017f4b4b000000000000000000000000000000000000000000000000000000000000815250816000908162000094919062000331565b508060019081620000a6919062000331565b505050600060068190555062000418565b600081519050919050565b7f4e487b7100000000000000000000000000000000000000000000000000000000600052604160045260246000fd5b7f4e487b7100000000000000000000000000000000000000000000000000000000600052602260045260246000fd5b600060028204905060018216806200013957607f821691505b6020821081036200014f576200014e620000f1565b5b50919050565b60008190508160005260206000209050919050565b60006020601f8301049050919050565b600082821b905092915050565b600060088302620001b97fffffffffffffffffffffffffffffffffffffffffffffffffffffffffffffffff826200017a565b620001c586836200017a565b95508019841693508086168417925050509392505050565b6000819050919050565b6000819050919050565b6000620002126200020c6200020684620001dd565b620001e7565b620001dd565b9050919050565b6000819050919050565b6200022e83620001f1565b620002466200023d8262000219565b84845462000187565b825550505050565b600090565b6200025d6200024e565b6200026a81848462000223565b505050565b5b8181101562000292576200028660008262000253565b60018101905062000270565b5050565b601f821115620002e157620002ab8162000155565b620002b6846200016a565b81016020851015620002c6578190505b620002de620002d5856200016a565b8301826200026f565b50505b505050565b600082821c905092915050565b60006200030660001984600802620002e6565b1980831691505092915050565b6000620003218383620002f3565b9150826002028217905092915050565b6200033c82620000b7565b67ffffffffffffffff811115620003585762000357620000c2565b5b62000364825462000120565b6200037182828562000296565b600060209050601f831160018114620003a9576000841562000394578287015190505b620003a0858262000313565b86555062000410565b601f198416620003b98662000155565b60005b82811015620003e357848901518255600182019150602085019450602081019050620003bc565b86831015620004035784890151620003ff601f891682620002f3565b8355505b6001600288020188555050505b505050505050565b611c5680620004286000396000f3fe608060405234801561001057600080fd5b506004361061010b5760003560e01c80636e02007d116100a2578063a22cb46511610071578063a22cb465146102ba578063b88d4fde146102d6578063c2229fea146102f2578063c87b56dd146102fc578063e985e9c51461032c5761010b565b80636e02007d1461023057806370a082311461024e57806378ce90351461027e57806395d89b411461029c5761010b565b806323b872dd116100de57806323b872dd146101aa57806342842e0e146101c657806355b0cf12146101e25780636352211e146102005761010b565b806301ffc9a71461011057806306fdde0314610140578063081812fc1461015e578063095ea7b31461018e575b600080fd5b61012a60048036038101906101259190611497565b61035c565b60405161013791906114df565b60405180910390f35b61014861043e565b604051610155919061158a565b60405180910390f35b610178600480360381019061017391906115e2565b6104d0565b6040516101859190611650565b60405180910390f35b6101a860048036038101906101a39190611697565b6104ec565b005b6101c460048036038101906101bf91906116d7565b610502565b005b6101e060048036038101906101db91906116d7565b610604565b005b6101ea610624565b6040516101f79190611650565b60405180910390f35b61021a600480360381019061021591906115e2565b610629565b6040516102279190611650565b60405180910390f35b61023861063b565b6040516102459190611739565b60405180910390f35b61026860048036038101906102639190611754565b610645565b6040516102759190611739565b60405180910390f35b6102866106ff565b604051610293919061158a565b60405180910390f35b6102a461071b565b6040516102b1919061158a565b60405180910390f35b6102d460048036038101906102cf91906117ad565b6107ad565b005b6102f060048036038101906102eb9190611922565b6107c3565b005b6102fa6107e0565b005b610316600480360381019061031191906115e2565b610832565b604051610323919061158a565b60405180910390f35b610346600480360381019061034191906119a5565b610854565b60405161035391906114df565b60405180910390f35b60007f80ac58cd000000000000000000000000000000000000000000000000000000007bffffffffffffffffffffffffffffffffffffffffffffffffffffffff1916827bffffffffffffffffffffffffffffffffffffffffffffffffffffffff1916148061042757507f5b5e139f000000000000000000000000000000000000000000000000000000007bffffffffffffffffffffffffffffffffffffffffffffffffffffffff1916827bffffffffffffffffffffffffffffffffffffffffffffffffffffffff1916145b806104375750610436826108e8565b5b9050919050565b60606000805461044d90611a14565b80601f016020809104026020016040519081016040528092919081815260200182805461047990611a14565b80156104c65780601f1061049b576101008083540402835291602001916104c6565b820191906000526020600020905b8154815290600101906020018083116104a957829003601f168201915b5050505050905090565b60006104db82610952565b506104e5826109da565b9050919050565b6104fe82826104f9610a17565b610a1f565b5050565b600073ffffffffffffffffffffffffffffffffffffffff168273ffffffffffffffffffffffffffffffffffffffff16036105745760006040517f64a0ae9200000000000000000000000000000000000000000000000000000000815260040161056b9190611650565b60405180910390fd5b60006105888383610583610a17565b610a31565b90508373ffffffffffffffffffffffffffffffffffffffff168173ffffffffffffffffffffffffffffffffffffffff16146105fe578382826040517f64283d7b0000000000000000000000000000000000000000000000000000000081526004016105f593929190611a45565b60405180910390fd5b50505050565b61061f838383604051806020016040528060008152506107c3565b505050565b600090565b600061063482610952565b9050919050565b6000600654905090565b60008073ffffffffffffffffffffffffffffffffffffffff168273ffffffffffffffffffffffffffffffffffffffff16036106b85760006040517f89c62b640000000000000000000000000000000000000000000000000000000081526004016106af9190611650565b60405180910390fd5b600360008373ffffffffffffffffffffffffffffffffffffffff1673ffffffffffffffffffffffffffffffffffffffff168152602001908152602001600020549050919050565b604051806060016040528060358152602001611bec6035913981565b60606001805461072a90611a14565b80601f016020809104026020016040519081016040528092919081815260200182805461075690611a14565b80156107a35780601f10610778576101008083540402835291602001916107a3565b820191906000526020600020905b81548152906001019060200180831161078657829003601f168201915b5050505050905090565b6107bf6107b8610a17565b8383610c4b565b5050565b6107ce848484610502565b6107da84848484610dba565b50505050565b6107ec33600654610f71565b6006547fd3b8835deded0a17c9aa8a2dec161082069b0c28d5d279579d22b84b1be269c860405160405180910390a2600160065461082a9190611aab565b600681905550565b6060604051806060016040528060358152602001611bec603591399050919050565b6000600560008473ffffffffffffffffffffffffffffffffffffffff1673ffffffffffffffffffffffffffffffffffffffff16815260200190815260200160002060008373ffffffffffffffffffffffffffffffffffffffff1673ffffffffffffffffffffffffffffffffffffffff16815260200190815260200160002060009054906101000a900460ff16905092915050565b60007f01ffc9a7000000000000000000000000000000000000000000000000000000007bffffffffffffffffffffffffffffffffffffffffffffffffffffffff1916827bffffffffffffffffffffffffffffffffffffffffffffffffffffffff1916149050919050565b60008061095e83610f8f565b9050600073ffffffffffffffffffffffffffffffffffffffff168173ffffffffffffffffffffffffffffffffffffffff16036109d157826040517f7e2732890000000000000000000000000000000000000000000000000000000081526004016109c89190611739565b60405180910390fd5b80915050919050565b60006004600083815260200190815260200160002060009054906101000a900473ffffffffffffffffffffffffffffffffffffffff169050919050565b600033905090565b610a2c8383836001610fcc565b505050565b600080610a3d84610f8f565b9050600073ffffffffffffffffffffffffffffffffffffffff168373ffffffffffffffffffffffffffffffffffffffff1614610a7f57610a7e818486611191565b5b600073ffffffffffffffffffffffffffffffffffffffff168173ffffffffffffffffffffffffffffffffffffffff1614610b1057610ac1600085600080610fcc565b6001600360008373ffffffffffffffffffffffffffffffffffffffff1673ffffffffffffffffffffffffffffffffffffffff168152602001908152602001600020600082825403925050819055505b600073ffffffffffffffffffffffffffffffffffffffff168573ffffffffffffffffffffffffffffffffffffffff1614610b93576001600360008773ffffffffffffffffffffffffffffffffffffffff1673ffffffffffffffffffffffffffffffffffffffff168152602001908152602001600020600082825401925050819055505b846002600086815260200190815260200160002060006101000a81548173ffffffffffffffffffffffffffffffffffffffff021916908373ffffffffffffffffffffffffffffffffffffffff160217905550838573ffffffffffffffffffffffffffffffffffffffff168273ffffffffffffffffffffffffffffffffffffffff167fddf252ad1be2c89b69c2b068fc378daa952ba7f163c4a11628f55a4df523b3ef60405160405180910390a4809150509392505050565b600073ffffffffffffffffffffffffffffffffffffffff168273ffffffffffffffffffffffffffffffffffffffff1603610cbc57816040517f5b08ba18000000000000000000000000000000000000000000000000000000008152600401610cb39190611650565b60405180910390fd5b80600560008573ffffffffffffffffffffffffffffffffffffffff1673ffffffffffffffffffffffffffffffffffffffff16815260200190815260200160002060008473ffffffffffffffffffffffffffffffffffffffff1673ffffffffffffffffffffffffffffffffffffffff16815260200190815260200160002060006101000a81548160ff0219169083151502179055508173ffffffffffffffffffffffffffffffffffffffff168373ffffffffffffffffffffffffffffffffffffffff167f17307eab39ab6107e8899845ad3d59bd9653f200f220920489ca2b5937696c3183604051610dad91906114df565b60405180910390a3505050565b60008373ffffffffffffffffffffffffffffffffffffffff163b1115610f6b578273ffffffffffffffffffffffffffffffffffffffff1663150b7a02610dfe610a17565b8685856040518563ffffffff1660e01b8152600401610e209493929190611b34565b6020604051808303816000875af1925050508015610e5c57506040513d601f19601f82011682018060405250810190610e599190611b95565b60015b610ee0573d8060008114610e8c576040519150601f19603f3d011682016040523d82523d6000602084013e610e91565b606091505b506000815103610ed857836040517f64a0ae92000000000000000000000000000000000000000000000000000000008152600401610ecf9190611650565b60405180910390fd5b805181602001fd5b63150b7a0260e01b7bffffffffffffffffffffffffffffffffffffffffffffffffffffffff1916817bffffffffffffffffffffffffffffffffffffffffffffffffffffffff191614610f6957836040517f64a0ae92000000000000000000000000000000000000000000000000000000008152600401610f609190611650565b60405180910390fd5b505b50505050565b610f8b828260405180602001604052806000815250611255565b5050565b60006002600083815260200190815260200160002060009054906101000a900473ffffffffffffffffffffffffffffffffffffffff169050919050565b80806110055750600073ffffffffffffffffffffffffffffffffffffffff168273ffffffffffffffffffffffffffffffffffffffff1614155b1561113957600061101584610952565b9050600073ffffffffffffffffffffffffffffffffffffffff168373ffffffffffffffffffffffffffffffffffffffff161415801561108057508273ffffffffffffffffffffffffffffffffffffffff168173ffffffffffffffffffffffffffffffffffffffff1614155b801561109357506110918184610854565b155b156110d557826040517fa9fbf51f0000000000000000000000000000000000000000000000000000000081526004016110cc9190611650565b60405180910390fd5b811561113757838573ffffffffffffffffffffffffffffffffffffffff168273ffffffffffffffffffffffffffffffffffffffff167f8c5be1e5ebec7d5bd14f71427d1e84f3dd0314c0f7b2291e5b200ac8c7c3b92560405160405180910390a45b505b836004600085815260200190815260200160002060006101000a81548173ffffffffffffffffffffffffffffffffffffffff021916908373ffffffffffffffffffffffffffffffffffffffff16021790555050505050565b61119c838383611271565b61125057600073ffffffffffffffffffffffffffffffffffffffff168373ffffffffffffffffffffffffffffffffffffffff160361121157806040517f7e2732890000000000000000000000000000000000000000000000000000000081526004016112089190611739565b60405180910390fd5b81816040517f177e802f000000000000000000000000000000000000000000000000000000008152600401611247929190611bc2565b60405180910390fd5b505050565b61125f8383611332565b61126c6000848484610dba565b505050565b60008073ffffffffffffffffffffffffffffffffffffffff168373ffffffffffffffffffffffffffffffffffffffff161415801561132957508273ffffffffffffffffffffffffffffffffffffffff168473ffffffffffffffffffffffffffffffffffffffff1614806112ea57506112e98484610854565b5b8061132857508273ffffffffffffffffffffffffffffffffffffffff16611310836109da565b73ffffffffffffffffffffffffffffffffffffffff16145b5b90509392505050565b600073ffffffffffffffffffffffffffffffffffffffff168273ffffffffffffffffffffffffffffffffffffffff16036113a45760006040517f64a0ae9200000000000000000000000000000000000000000000000000000000815260040161139b9190611650565b60405180910390fd5b60006113b283836000610a31565b9050600073ffffffffffffffffffffffffffffffffffffffff168173ffffffffffffffffffffffffffffffffffffffff16146114265760006040517f73c6ac6e00000000000000000000000000000000000000000000000000000000815260040161141d9190611650565b60405180910390fd5b505050565b6000604051905090565b600080fd5b600080fd5b60007fffffffff0000000000000000000000000000000000000000000000000000000082169050919050565b6114748161143f565b811461147f57600080fd5b50565b6000813590506114918161146b565b92915050565b6000602082840312156114ad576114ac611435565b5b60006114bb84828501611482565b91505092915050565b60008115159050919050565b6114d9816114c4565b82525050565b60006020820190506114f460008301846114d0565b92915050565b600081519050919050565b600082825260208201905092915050565b60005b83811015611534578082015181840152602081019050611519565b60008484015250505050565b6000601f19601f8301169050919050565b600061155c826114fa565b6115668185611505565b9350611576818560208601611516565b61157f81611540565b840191505092915050565b600060208201905081810360008301526115a48184611551565b905092915050565b6000819050919050565b6115bf816115ac565b81146115ca57600080fd5b50565b6000813590506115dc816115b6565b92915050565b6000602082840312156115f8576115f7611435565b5b6000611606848285016115cd565b91505092915050565b600073ffffffffffffffffffffffffffffffffffffffff82169050919050565b600061163a8261160f565b9050919050565b61164a8161162f565b82525050565b60006020820190506116656000830184611641565b92915050565b6116748161162f565b811461167f57600080fd5b50565b6000813590506116918161166b565b92915050565b600080604083850312156116ae576116ad611435565b5b60006116bc85828601611682565b92505060206116cd858286016115cd565b9150509250929050565b6000806000606084860312156116f0576116ef611435565b5b60006116fe86828701611682565b935050602061170f86828701611682565b9250506040611720868287016115cd565b9150509250925092565b611733816115ac565b82525050565b600060208201905061174e600083018461172a565b92915050565b60006020828403121561176a57611769611435565b5b600061177884828501611682565b91505092915050565b61178a816114c4565b811461179557600080fd5b50565b6000813590506117a781611781565b92915050565b600080604083850312156117c4576117c3611435565b5b60006117d285828601611682565b92505060206117e385828601611798565b9150509250929050565b600080fd5b600080fd5b7f4e487b7100000000000000000000000000000000000000000000000000000000600052604160045260246000fd5b61182f82611540565b810181811067ffffffffffffffff8211171561184e5761184d6117f7565b5b80604052505050565b600061186161142b565b905061186d8282611826565b919050565b600067ffffffffffffffff82111561188d5761188c6117f7565b5b61189682611540565b9050602081019050919050565b82818337600083830152505050565b60006118c56118c084611872565b611857565b9050828152602081018484840111156118e1576118e06117f2565b5b6118ec8482856118a3565b509392505050565b600082601f830112611909576119086117ed565b5b81356119198482602086016118b2565b91505092915050565b6000806000806080858703121561193c5761193b611435565b5b600061194a87828801611682565b945050602061195b87828801611682565b935050604061196c878288016115cd565b925050606085013567ffffffffffffffff81111561198d5761198c61143a565b5b611999878288016118f4565b91505092959194509250565b600080604083850312156119bc576119bb611435565b5b60006119ca85828601611682565b92505060206119db85828601611682565b9150509250929050565b7f4e487b7100000000000000000000000000000000000000000000000000000000600052602260045260246000fd5b60006002820490506001821680611a2c57607f821691505b602082108103611a3f57611a3e6119e5565b5b50919050565b6000606082019050611a5a6000830186611641565b611a67602083018561172a565b611a746040830184611641565b949350505050565b7f4e487b7100000000000000000000000000000000000000000000000000000000600052601160045260246000fd5b6000611ab6826115ac565b9150611ac1836115ac565b9250828201905080821115611ad957611ad8611a7c565b5b92915050565b600081519050919050565b600082825260208201905092915050565b6000611b0682611adf565b611b108185611aea565b9350611b20818560208601611516565b611b2981611540565b840191505092915050565b6000608082019050611b496000830187611641565b611b566020830186611641565b611b63604083018561172a565b8181036060830152611b758184611afb565b905095945050505050565b600081519050611b8f8161146b565b92915050565b600060208284031215611bab57611baa611435565b5b6000611bb984828501611b80565b91505092915050565b6000604082019050611bd76000830185611641565b611be4602083018461172a565b939250505056fe697066733a2f2f516d56443777757255444d4b7742347959434455636932533466646a4a765976486f757056535a64656478554359a26469706673582212201ede47a0e1a8811f3924d27c6d831432cc00b0f6ae3b8f33120dd89456b39e7164736f6c63430008180033",
  "linkReferences": {},
  "deployedLinkReferences": {}
}